{
  "_format": "hh-sol-artifact-1",
  "contractName": "GptNft",
  "sourceName": "contracts/test/GptNft.sol",
  "abi": [
    {
      "inputs": [],
      "stateMutability": "nonpayable",
      "type": "constructor"
    },
    {
      "inputs": [],
      "name": "GptNftMetadata__URI_QueryFor_NonExistentToken",
      "type": "error"
    },
    {
      "anonymous": false,
      "inputs": [
        {
          "indexed": true,
          "internalType": "address",
          "name": "owner",
          "type": "address"
        },
        {
          "indexed": true,
          "internalType": "address",
          "name": "approved",
          "type": "address"
        },
        {
          "indexed": true,
          "internalType": "uint256",
          "name": "tokenId",
          "type": "uint256"
        }
      ],
      "name": "Approval",
      "type": "event"
    },
    {
      "anonymous": false,
      "inputs": [
        {
          "indexed": true,
          "internalType": "address",
          "name": "owner",
          "type": "address"
        },
        {
          "indexed": true,
          "internalType": "address",
          "name": "operator",
          "type": "address"
        },
        {
          "indexed": false,
          "internalType": "bool",
          "name": "approved",
          "type": "bool"
        }
      ],
      "name": "ApprovalForAll",
      "type": "event"
    },
    {
      "anonymous": false,
      "inputs": [
        {
          "indexed": true,
          "internalType": "uint256",
          "name": "tokenId",
          "type": "uint256"
        },
        {
          "indexed": true,
          "internalType": "string",
          "name": "imageURI",
          "type": "string"
        }
      ],
      "name": "NftMinted",
      "type": "event"
    },
    {
      "anonymous": false,
      "inputs": [
        {
          "indexed": true,
          "internalType": "address",
          "name": "previousOwner",
          "type": "address"
        },
        {
          "indexed": true,
          "internalType": "address",
          "name": "newOwner",
          "type": "address"
        }
      ],
      "name": "OwnershipTransferred",
      "type": "event"
    },
    {
      "anonymous": false,
      "inputs": [
        {
          "indexed": true,
          "internalType": "address",
          "name": "from",
          "type": "address"
        },
        {
          "indexed": true,
          "internalType": "address",
          "name": "to",
          "type": "address"
        },
        {
          "indexed": true,
          "internalType": "uint256",
          "name": "tokenId",
          "type": "uint256"
        }
      ],
      "name": "Transfer",
      "type": "event"
    },
    {
      "inputs": [
        {
          "internalType": "address",
          "name": "to",
          "type": "address"
        },
        {
          "internalType": "uint256",
          "name": "tokenId",
          "type": "uint256"
        }
      ],
      "name": "approve",
      "outputs": [],
      "stateMutability": "nonpayable",
      "type": "function"
    },
    {
      "inputs": [
        {
          "internalType": "address",
          "name": "owner",
          "type": "address"
        }
      ],
      "name": "balanceOf",
      "outputs": [
        {
          "internalType": "uint256",
          "name": "",
          "type": "uint256"
        }
      ],
      "stateMutability": "view",
      "type": "function"
    },
    {
      "inputs": [
        {
          "internalType": "uint256",
          "name": "tokenId",
          "type": "uint256"
        }
      ],
      "name": "getApproved",
      "outputs": [
        {
          "internalType": "address",
          "name": "",
          "type": "address"
        }
      ],
      "stateMutability": "view",
      "type": "function"
    },
    {
      "inputs": [],
      "name": "getTokenCounter",
      "outputs": [
        {
          "internalType": "uint256",
          "name": "",
          "type": "uint256"
        }
      ],
      "stateMutability": "view",
      "type": "function"
    },
    {
      "inputs": [
        {
          "internalType": "address",
          "name": "owner",
          "type": "address"
        },
        {
          "internalType": "address",
          "name": "operator",
          "type": "address"
        }
      ],
      "name": "isApprovedForAll",
      "outputs": [
        {
          "internalType": "bool",
          "name": "",
          "type": "bool"
        }
      ],
      "stateMutability": "view",
      "type": "function"
    },
    {
      "inputs": [
        {
          "internalType": "string",
          "name": "tokenUri",
          "type": "string"
        }
      ],
      "name": "mintNft",
      "outputs": [],
      "stateMutability": "nonpayable",
      "type": "function"
    },
    {
      "inputs": [],
      "name": "name",
      "outputs": [
        {
          "internalType": "string",
          "name": "",
          "type": "string"
        }
      ],
      "stateMutability": "view",
      "type": "function"
    },
    {
      "inputs": [],
      "name": "owner",
      "outputs": [
        {
          "internalType": "address",
          "name": "",
          "type": "address"
        }
      ],
      "stateMutability": "view",
      "type": "function"
    },
    {
      "inputs": [
        {
          "internalType": "uint256",
          "name": "tokenId",
          "type": "uint256"
        }
      ],
      "name": "ownerOf",
      "outputs": [
        {
          "internalType": "address",
          "name": "",
          "type": "address"
        }
      ],
      "stateMutability": "view",
      "type": "function"
    },
    {
      "inputs": [],
      "name": "renounceOwnership",
      "outputs": [],
      "stateMutability": "nonpayable",
      "type": "function"
    },
    {
      "inputs": [
        {
          "internalType": "address",
          "name": "from",
          "type": "address"
        },
        {
          "internalType": "address",
          "name": "to",
          "type": "address"
        },
        {
          "internalType": "uint256",
          "name": "tokenId",
          "type": "uint256"
        }
      ],
      "name": "safeTransferFrom",
      "outputs": [],
      "stateMutability": "nonpayable",
      "type": "function"
    },
    {
      "inputs": [
        {
          "internalType": "address",
          "name": "from",
          "type": "address"
        },
        {
          "internalType": "address",
          "name": "to",
          "type": "address"
        },
        {
          "internalType": "uint256",
          "name": "tokenId",
          "type": "uint256"
        },
        {
          "internalType": "bytes",
          "name": "data",
          "type": "bytes"
        }
      ],
      "name": "safeTransferFrom",
      "outputs": [],
      "stateMutability": "nonpayable",
      "type": "function"
    },
    {
      "inputs": [
        {
          "internalType": "address",
          "name": "operator",
          "type": "address"
        },
        {
          "internalType": "bool",
          "name": "approved",
          "type": "bool"
        }
      ],
      "name": "setApprovalForAll",
      "outputs": [],
      "stateMutability": "nonpayable",
      "type": "function"
    },
    {
      "inputs": [
        {
          "internalType": "bytes4",
          "name": "interfaceId",
          "type": "bytes4"
        }
      ],
      "name": "supportsInterface",
      "outputs": [
        {
          "internalType": "bool",
          "name": "",
          "type": "bool"
        }
      ],
      "stateMutability": "view",
      "type": "function"
    },
    {
      "inputs": [],
      "name": "symbol",
      "outputs": [
        {
          "internalType": "string",
          "name": "",
          "type": "string"
        }
      ],
      "stateMutability": "view",
      "type": "function"
    },
    {
      "inputs": [
        {
          "internalType": "uint256",
          "name": "tokenId",
          "type": "uint256"
        }
      ],
      "name": "tokenURI",
      "outputs": [
        {
          "internalType": "string",
          "name": "",
          "type": "string"
        }
      ],
      "stateMutability": "view",
      "type": "function"
    },
    {
      "inputs": [
        {
          "internalType": "address",
          "name": "from",
          "type": "address"
        },
        {
          "internalType": "address",
          "name": "to",
          "type": "address"
        },
        {
          "internalType": "uint256",
          "name": "tokenId",
          "type": "uint256"
        }
      ],
      "name": "transferFrom",
      "outputs": [],
      "stateMutability": "nonpayable",
      "type": "function"
    },
    {
      "inputs": [
        {
          "internalType": "address",
          "name": "newOwner",
          "type": "address"
        }
      ],
      "name": "transferOwnership",
      "outputs": [],
      "stateMutability": "nonpayable",
      "type": "function"
    }
  ],
  "bytecode": "0x60806040523480156200001157600080fd5b506040518060400160405280600681526020017f4770744e667400000000000000000000000000000000000000000000000000008152506040518060400160405280600381526020017f4746540000000000000000000000000000000000000000000000000000000000815250816000908051906020019062000096929190620001a6565b508060019080519060200190620000af929190620001a6565b505050620000d2620000c6620000d860201b60201c565b620000e060201b60201c565b620002bb565b600033905090565b6000600760009054906101000a900473ffffffffffffffffffffffffffffffffffffffff16905081600760006101000a81548173ffffffffffffffffffffffffffffffffffffffff021916908373ffffffffffffffffffffffffffffffffffffffff1602179055508173ffffffffffffffffffffffffffffffffffffffff168173ffffffffffffffffffffffffffffffffffffffff167f8be0079c531659141344cd1fd0a4f28419497f9722a3daafe3b4186f6b6457e060405160405180910390a35050565b828054620001b49062000256565b90600052602060002090601f016020900481019282620001d8576000855562000224565b82601f10620001f357805160ff191683800117855562000224565b8280016001018555821562000224579182015b828111156200022357825182559160200191906001019062000206565b5b50905062000233919062000237565b5090565b5b808211156200025257600081600090555060010162000238565b5090565b600060028204905060018216806200026f57607f821691505b602082108114156200028657620002856200028c565b5b50919050565b7f4e487b7100000000000000000000000000000000000000000000000000000000600052602260045260246000fd5b612f5e80620002cb6000396000f3fe608060405234801561001057600080fd5b50600436106101165760003560e01c8063715018a6116100a2578063b88d4fde11610071578063b88d4fde146102cd578063c87b56dd146102e9578063da86f4a914610319578063e985e9c514610335578063f2fde38b1461036557610116565b8063715018a61461026b5780638da5cb5b1461027557806395d89b4114610293578063a22cb465146102b157610116565b806323b872dd116100e957806323b872dd146101b557806342842e0e146101d15780636352211e146101ed5780636e02007d1461021d57806370a082311461023b57610116565b806301ffc9a71461011b57806306fdde031461014b578063081812fc14610169578063095ea7b314610199575b600080fd5b610135600480360381019061013091906121a6565b610381565b60405161014291906125d2565b60405180910390f35b610153610463565b60405161016091906125ed565b60405180910390f35b610183600480360381019061017e9190612249565b6104f5565b604051610190919061256b565b60405180910390f35b6101b360048036038101906101ae9190612166565b61053b565b005b6101cf60048036038101906101ca9190612050565b610653565b005b6101eb60048036038101906101e69190612050565b6106b3565b005b61020760048036038101906102029190612249565b6106d3565b604051610214919061256b565b60405180910390f35b61022561075a565b60405161023291906127cf565b60405180910390f35b61025560048036038101906102509190611fe3565b61076b565b60405161026291906127cf565b60405180910390f35b610273610823565b005b61027d610837565b60405161028a919061256b565b60405180910390f35b61029b610861565b6040516102a891906125ed565b60405180910390f35b6102cb60048036038101906102c69190612126565b6108f3565b005b6102e760048036038101906102e291906120a3565b610909565b005b61030360048036038101906102fe9190612249565b61096b565b60405161031091906125ed565b60405180910390f35b610333600480360381019061032e9190612200565b6109bc565b005b61034f600480360381019061034a9190612010565b610a57565b60405161035c91906125d2565b60405180910390f35b61037f600480360381019061037a9190611fe3565b610aeb565b005b60007f80ac58cd000000000000000000000000000000000000000000000000000000007bffffffffffffffffffffffffffffffffffffffffffffffffffffffff1916827bffffffffffffffffffffffffffffffffffffffffffffffffffffffff1916148061044c57507f5b5e139f000000000000000000000000000000000000000000000000000000007bffffffffffffffffffffffffffffffffffffffffffffffffffffffff1916827bffffffffffffffffffffffffffffffffffffffffffffffffffffffff1916145b8061045c575061045b82610b6f565b5b9050919050565b606060008054610472906129f4565b80601f016020809104026020016040519081016040528092919081815260200182805461049e906129f4565b80156104eb5780601f106104c0576101008083540402835291602001916104eb565b820191906000526020600020905b8154815290600101906020018083116104ce57829003601f168201915b5050505050905090565b600061050082610bd9565b6004600083815260200190815260200160002060009054906101000a900473ffffffffffffffffffffffffffffffffffffffff169050919050565b6000610546826106d3565b90508073ffffffffffffffffffffffffffffffffffffffff168373ffffffffffffffffffffffffffffffffffffffff1614156105b7576040517f08c379a00000000000000000000000000000000000000000000000000000000081526004016105ae9061278f565b60405180910390fd5b8073ffffffffffffffffffffffffffffffffffffffff166105d6610c24565b73ffffffffffffffffffffffffffffffffffffffff1614806106055750610604816105ff610c24565b610a57565b5b610644576040517f08c379a000000000000000000000000000000000000000000000000000000000815260040161063b906127af565b60405180910390fd5b61064e8383610c2c565b505050565b61066461065e610c24565b82610ce5565b6106a3576040517f08c379a000000000000000000000000000000000000000000000000000000000815260040161069a9061260f565b60405180910390fd5b6106ae838383610d7a565b505050565b6106ce83838360405180602001604052806000815250610909565b505050565b6000806106df83611074565b9050600073ffffffffffffffffffffffffffffffffffffffff168173ffffffffffffffffffffffffffffffffffffffff161415610751576040517f08c379a00000000000000000000000000000000000000000000000000000000081526004016107489061276f565b60405180910390fd5b80915050919050565b600061076660086110b1565b905090565b60008073ffffffffffffffffffffffffffffffffffffffff168273ffffffffffffffffffffffffffffffffffffffff1614156107dc576040517f08c379a00000000000000000000000000000000000000000000000000000000081526004016107d3906126ef565b60405180910390fd5b600360008373ffffffffffffffffffffffffffffffffffffffff1673ffffffffffffffffffffffffffffffffffffffff168152602001908152602001600020549050919050565b61082b6110bf565b610835600061113d565b565b6000600760009054906101000a900473ffffffffffffffffffffffffffffffffffffffff16905090565b606060018054610870906129f4565b80601f016020809104026020016040519081016040528092919081815260200182805461089c906129f4565b80156108e95780601f106108be576101008083540402835291602001916108e9565b820191906000526020600020905b8154815290600101906020018083116108cc57829003601f168201915b5050505050905090565b6109056108fe610c24565b8383611203565b5050565b61091a610914610c24565b83610ce5565b610959576040517f08c379a00000000000000000000000000000000000000000000000000000000081526004016109509061260f565b60405180910390fd5b61096584848484611370565b50505050565b6060610976826113cc565b6109ac576040517fb4cea28800000000000000000000000000000000000000000000000000000000815260040160405180910390fd5b6109b58261140d565b9050919050565b6109c66008611520565b60006109d260086110b1565b9050816009600083815260200190815260200160002090805190602001906109fb929190611df7565b50610a063382611536565b610a108183611554565b81604051610a1e9190612530565b6040518091039020817fe578c8f75165e747c939a516a93901610990f0f120d839b08ce89b77ad220f1e60405160405180910390a35050565b6000600560008473ffffffffffffffffffffffffffffffffffffffff1673ffffffffffffffffffffffffffffffffffffffff16815260200190815260200160002060008373ffffffffffffffffffffffffffffffffffffffff1673ffffffffffffffffffffffffffffffffffffffff16815260200190815260200160002060009054906101000a900460ff16905092915050565b610af36110bf565b600073ffffffffffffffffffffffffffffffffffffffff168173ffffffffffffffffffffffffffffffffffffffff161415610b63576040517f08c379a0000000000000000000000000000000000000000000000000000000008152600401610b5a9061264f565b60405180910390fd5b610b6c8161113d565b50565b60007f01ffc9a7000000000000000000000000000000000000000000000000000000007bffffffffffffffffffffffffffffffffffffffffffffffffffffffff1916827bffffffffffffffffffffffffffffffffffffffffffffffffffffffff1916149050919050565b610be2816113cc565b610c21576040517f08c379a0000000000000000000000000000000000000000000000000000000008152600401610c189061276f565b60405180910390fd5b50565b600033905090565b816004600083815260200190815260200160002060006101000a81548173ffffffffffffffffffffffffffffffffffffffff021916908373ffffffffffffffffffffffffffffffffffffffff160217905550808273ffffffffffffffffffffffffffffffffffffffff16610c9f836106d3565b73ffffffffffffffffffffffffffffffffffffffff167f8c5be1e5ebec7d5bd14f71427d1e84f3dd0314c0f7b2291e5b200ac8c7c3b92560405160405180910390a45050565b600080610cf1836106d3565b90508073ffffffffffffffffffffffffffffffffffffffff168473ffffffffffffffffffffffffffffffffffffffff161480610d335750610d328185610a57565b5b80610d7157508373ffffffffffffffffffffffffffffffffffffffff16610d59846104f5565b73ffffffffffffffffffffffffffffffffffffffff16145b91505092915050565b8273ffffffffffffffffffffffffffffffffffffffff16610d9a826106d3565b73ffffffffffffffffffffffffffffffffffffffff1614610df0576040517f08c379a0000000000000000000000000000000000000000000000000000000008152600401610de79061266f565b60405180910390fd5b600073ffffffffffffffffffffffffffffffffffffffff168273ffffffffffffffffffffffffffffffffffffffff161415610e60576040517f08c379a0000000000000000000000000000000000000000000000000000000008152600401610e57906126af565b60405180910390fd5b610e6d83838360016115c8565b8273ffffffffffffffffffffffffffffffffffffffff16610e8d826106d3565b73ffffffffffffffffffffffffffffffffffffffff1614610ee3576040517f08c379a0000000000000000000000000000000000000000000000000000000008152600401610eda9061266f565b60405180910390fd5b6004600082815260200190815260200160002060006101000a81549073ffffffffffffffffffffffffffffffffffffffff02191690556001600360008573ffffffffffffffffffffffffffffffffffffffff1673ffffffffffffffffffffffffffffffffffffffff168152602001908152602001600020600082825403925050819055506001600360008473ffffffffffffffffffffffffffffffffffffffff1673ffffffffffffffffffffffffffffffffffffffff16815260200190815260200160002060008282540192505081905550816002600083815260200190815260200160002060006101000a81548173ffffffffffffffffffffffffffffffffffffffff021916908373ffffffffffffffffffffffffffffffffffffffff160217905550808273ffffffffffffffffffffffffffffffffffffffff168473ffffffffffffffffffffffffffffffffffffffff167fddf252ad1be2c89b69c2b068fc378daa952ba7f163c4a11628f55a4df523b3ef60405160405180910390a461106f83838360016116ee565b505050565b60006002600083815260200190815260200160002060009054906101000a900473ffffffffffffffffffffffffffffffffffffffff169050919050565b600081600001549050919050565b6110c7610c24565b73ffffffffffffffffffffffffffffffffffffffff166110e5610837565b73ffffffffffffffffffffffffffffffffffffffff161461113b576040517f08c379a00000000000000000000000000000000000000000000000000000000081526004016111329061274f565b60405180910390fd5b565b6000600760009054906101000a900473ffffffffffffffffffffffffffffffffffffffff16905081600760006101000a81548173ffffffffffffffffffffffffffffffffffffffff021916908373ffffffffffffffffffffffffffffffffffffffff1602179055508173ffffffffffffffffffffffffffffffffffffffff168173ffffffffffffffffffffffffffffffffffffffff167f8be0079c531659141344cd1fd0a4f28419497f9722a3daafe3b4186f6b6457e060405160405180910390a35050565b8173ffffffffffffffffffffffffffffffffffffffff168373ffffffffffffffffffffffffffffffffffffffff161415611272576040517f08c379a0000000000000000000000000000000000000000000000000000000008152600401611269906126cf565b60405180910390fd5b80600560008573ffffffffffffffffffffffffffffffffffffffff1673ffffffffffffffffffffffffffffffffffffffff16815260200190815260200160002060008473ffffffffffffffffffffffffffffffffffffffff1673ffffffffffffffffffffffffffffffffffffffff16815260200190815260200160002060006101000a81548160ff0219169083151502179055508173ffffffffffffffffffffffffffffffffffffffff168373ffffffffffffffffffffffffffffffffffffffff167f17307eab39ab6107e8899845ad3d59bd9653f200f220920489ca2b5937696c318360405161136391906125d2565b60405180910390a3505050565b61137b848484610d7a565b611387848484846116f4565b6113c6576040517f08c379a00000000000000000000000000000000000000000000000000000000081526004016113bd9061262f565b60405180910390fd5b50505050565b60008073ffffffffffffffffffffffffffffffffffffffff166113ee83611074565b73ffffffffffffffffffffffffffffffffffffffff1614159050919050565b606061141882610bd9565b6000600660008481526020019081526020016000208054611438906129f4565b80601f0160208091040260200160405190810160405280929190818152602001828054611464906129f4565b80156114b15780601f10611486576101008083540402835291602001916114b1565b820191906000526020600020905b81548152906001019060200180831161149457829003601f168201915b5050505050905060006114c261188b565b90506000815114156114d857819250505061151b565b60008251111561150d5780826040516020016114f5929190612547565b6040516020818303038152906040529250505061151b565b611516846118c8565b925050505b919050565b6001816000016000828254019250508190555050565b611550828260405180602001604052806000815250611930565b5050565b61155d826113cc565b61159c576040517f08c379a00000000000000000000000000000000000000000000000000000000081526004016115939061270f565b60405180910390fd5b806006600084815260200190815260200160002090805190602001906115c3929190611df7565b505050565b60018111156116e857600073ffffffffffffffffffffffffffffffffffffffff168473ffffffffffffffffffffffffffffffffffffffff161461165c5780600360008673ffffffffffffffffffffffffffffffffffffffff1673ffffffffffffffffffffffffffffffffffffffff1681526020019081526020016000206000828254611654919061290a565b925050819055505b600073ffffffffffffffffffffffffffffffffffffffff168373ffffffffffffffffffffffffffffffffffffffff16146116e75780600360008573ffffffffffffffffffffffffffffffffffffffff1673ffffffffffffffffffffffffffffffffffffffff16815260200190815260200160002060008282546116df91906128b4565b925050819055505b5b50505050565b50505050565b60006117158473ffffffffffffffffffffffffffffffffffffffff1661198b565b1561187e578373ffffffffffffffffffffffffffffffffffffffff1663150b7a0261173e610c24565b8786866040518563ffffffff1660e01b81526004016117609493929190612586565b602060405180830381600087803b15801561177a57600080fd5b505af19250505080156117ab57506040513d601f19601f820116820180604052508101906117a891906121d3565b60015b61182e573d80600081146117db576040519150601f19603f3d011682016040523d82523d6000602084013e6117e0565b606091505b50600081511415611826576040517f08c379a000000000000000000000000000000000000000000000000000000000815260040161181d9061262f565b60405180910390fd5b805181602001fd5b63150b7a0260e01b7bffffffffffffffffffffffffffffffffffffffffffffffffffffffff1916817bffffffffffffffffffffffffffffffffffffffffffffffffffffffff191614915050611883565b600190505b949350505050565b60606040518060400160405280601581526020017f68747470733a2f2f697066732e696f2f697066732f0000000000000000000000815250905090565b60606118d382610bd9565b60006118dd61188b565b905060008151116118fd5760405180602001604052806000815250611928565b80611907846119ae565b604051602001611918929190612547565b6040516020818303038152906040525b915050919050565b61193a8383611a86565b61194760008484846116f4565b611986576040517f08c379a000000000000000000000000000000000000000000000000000000000815260040161197d9061262f565b60405180910390fd5b505050565b6000808273ffffffffffffffffffffffffffffffffffffffff163b119050919050565b6060600060016119bd84611ca4565b01905060008167ffffffffffffffff8111156119dc576119db612ae4565b5b6040519080825280601f01601f191660200182016040528015611a0e5781602001600182028036833780820191505090505b509050600082602001820190505b600115611a7b578080600190039150507f3031323334353637383961626364656600000000000000000000000000000000600a86061a8153600a8581611a6557611a64612a86565b5b0494506000851415611a7657611a7b565b611a1c565b819350505050919050565b600073ffffffffffffffffffffffffffffffffffffffff168273ffffffffffffffffffffffffffffffffffffffff161415611af6576040517f08c379a0000000000000000000000000000000000000000000000000000000008152600401611aed9061272f565b60405180910390fd5b611aff816113cc565b15611b3f576040517f08c379a0000000000000000000000000000000000000000000000000000000008152600401611b369061268f565b60405180910390fd5b611b4d6000838360016115c8565b611b56816113cc565b15611b96576040517f08c379a0000000000000000000000000000000000000000000000000000000008152600401611b8d9061268f565b60405180910390fd5b6001600360008473ffffffffffffffffffffffffffffffffffffffff1673ffffffffffffffffffffffffffffffffffffffff16815260200190815260200160002060008282540192505081905550816002600083815260200190815260200160002060006101000a81548173ffffffffffffffffffffffffffffffffffffffff021916908373ffffffffffffffffffffffffffffffffffffffff160217905550808273ffffffffffffffffffffffffffffffffffffffff16600073ffffffffffffffffffffffffffffffffffffffff167fddf252ad1be2c89b69c2b068fc378daa952ba7f163c4a11628f55a4df523b3ef60405160405180910390a4611ca06000838360016116ee565b5050565b600080600090507a184f03e93ff9f4daa797ed6e38ed64bf6a1f0100000000000000008310611d02577a184f03e93ff9f4daa797ed6e38ed64bf6a1f0100000000000000008381611cf857611cf7612a86565b5b0492506040810190505b6d04ee2d6d415b85acef81000000008310611d3f576d04ee2d6d415b85acef81000000008381611d3557611d34612a86565b5b0492506020810190505b662386f26fc100008310611d6e57662386f26fc100008381611d6457611d63612a86565b5b0492506010810190505b6305f5e1008310611d97576305f5e1008381611d8d57611d8c612a86565b5b0492506008810190505b6127108310611dbc576127108381611db257611db1612a86565b5b0492506004810190505b60648310611ddf5760648381611dd557611dd4612a86565b5b0492506002810190505b600a8310611dee576001810190505b80915050919050565b828054611e03906129f4565b90600052602060002090601f016020900481019282611e255760008555611e6c565b82601f10611e3e57805160ff1916838001178555611e6c565b82800160010185558215611e6c579182015b82811115611e6b578251825591602001919060010190611e50565b5b509050611e799190611e7d565b5090565b5b80821115611e96576000816000905550600101611e7e565b5090565b6000611ead611ea88461280f565b6127ea565b905082815260208101848484011115611ec957611ec8612b18565b5b611ed48482856129b2565b509392505050565b6000611eef611eea84612840565b6127ea565b905082815260208101848484011115611f0b57611f0a612b18565b5b611f168482856129b2565b509392505050565b600081359050611f2d81612ecc565b92915050565b600081359050611f4281612ee3565b92915050565b600081359050611f5781612efa565b92915050565b600081519050611f6c81612efa565b92915050565b600082601f830112611f8757611f86612b13565b5b8135611f97848260208601611e9a565b91505092915050565b600082601f830112611fb557611fb4612b13565b5b8135611fc5848260208601611edc565b91505092915050565b600081359050611fdd81612f11565b92915050565b600060208284031215611ff957611ff8612b22565b5b600061200784828501611f1e565b91505092915050565b6000806040838503121561202757612026612b22565b5b600061203585828601611f1e565b925050602061204685828601611f1e565b9150509250929050565b60008060006060848603121561206957612068612b22565b5b600061207786828701611f1e565b935050602061208886828701611f1e565b925050604061209986828701611fce565b9150509250925092565b600080600080608085870312156120bd576120bc612b22565b5b60006120cb87828801611f1e565b94505060206120dc87828801611f1e565b93505060406120ed87828801611fce565b925050606085013567ffffffffffffffff81111561210e5761210d612b1d565b5b61211a87828801611f72565b91505092959194509250565b6000806040838503121561213d5761213c612b22565b5b600061214b85828601611f1e565b925050602061215c85828601611f33565b9150509250929050565b6000806040838503121561217d5761217c612b22565b5b600061218b85828601611f1e565b925050602061219c85828601611fce565b9150509250929050565b6000602082840312156121bc576121bb612b22565b5b60006121ca84828501611f48565b91505092915050565b6000602082840312156121e9576121e8612b22565b5b60006121f784828501611f5d565b91505092915050565b60006020828403121561221657612215612b22565b5b600082013567ffffffffffffffff81111561223457612233612b1d565b5b61224084828501611fa0565b91505092915050565b60006020828403121561225f5761225e612b22565b5b600061226d84828501611fce565b91505092915050565b61227f8161293e565b82525050565b61228e81612950565b82525050565b600061229f82612871565b6122a98185612887565b93506122b98185602086016129c1565b6122c281612b27565b840191505092915050565b60006122d88261287c565b6122e28185612898565b93506122f28185602086016129c1565b6122fb81612b27565b840191505092915050565b60006123118261287c565b61231b81856128a9565b935061232b8185602086016129c1565b80840191505092915050565b6000612344602d83612898565b915061234f82612b38565b604082019050919050565b6000612367603283612898565b915061237282612b87565b604082019050919050565b600061238a602683612898565b915061239582612bd6565b604082019050919050565b60006123ad602583612898565b91506123b882612c25565b604082019050919050565b60006123d0601c83612898565b91506123db82612c74565b602082019050919050565b60006123f3602483612898565b91506123fe82612c9d565b604082019050919050565b6000612416601983612898565b915061242182612cec565b602082019050919050565b6000612439602983612898565b915061244482612d15565b604082019050919050565b600061245c602e83612898565b915061246782612d64565b604082019050919050565b600061247f602083612898565b915061248a82612db3565b602082019050919050565b60006124a2602083612898565b91506124ad82612ddc565b602082019050919050565b60006124c5601883612898565b91506124d082612e05565b602082019050919050565b60006124e8602183612898565b91506124f382612e2e565b604082019050919050565b600061250b603d83612898565b915061251682612e7d565b604082019050919050565b61252a816129a8565b82525050565b600061253c8284612306565b915081905092915050565b60006125538285612306565b915061255f8284612306565b91508190509392505050565b60006020820190506125806000830184612276565b92915050565b600060808201905061259b6000830187612276565b6125a86020830186612276565b6125b56040830185612521565b81810360608301526125c78184612294565b905095945050505050565b60006020820190506125e76000830184612285565b92915050565b6000602082019050818103600083015261260781846122cd565b905092915050565b6000602082019050818103600083015261262881612337565b9050919050565b600060208201905081810360008301526126488161235a565b9050919050565b600060208201905081810360008301526126688161237d565b9050919050565b60006020820190508181036000830152612688816123a0565b9050919050565b600060208201905081810360008301526126a8816123c3565b9050919050565b600060208201905081810360008301526126c8816123e6565b9050919050565b600060208201905081810360008301526126e881612409565b9050919050565b600060208201905081810360008301526127088161242c565b9050919050565b600060208201905081810360008301526127288161244f565b9050919050565b6000602082019050818103600083015261274881612472565b9050919050565b6000602082019050818103600083015261276881612495565b9050919050565b60006020820190508181036000830152612788816124b8565b9050919050565b600060208201905081810360008301526127a8816124db565b9050919050565b600060208201905081810360008301526127c8816124fe565b9050919050565b60006020820190506127e46000830184612521565b92915050565b60006127f4612805565b90506128008282612a26565b919050565b6000604051905090565b600067ffffffffffffffff82111561282a57612829612ae4565b5b61283382612b27565b9050602081019050919050565b600067ffffffffffffffff82111561285b5761285a612ae4565b5b61286482612b27565b9050602081019050919050565b600081519050919050565b600081519050919050565b600082825260208201905092915050565b600082825260208201905092915050565b600081905092915050565b60006128bf826129a8565b91506128ca836129a8565b9250827fffffffffffffffffffffffffffffffffffffffffffffffffffffffffffffffff038211156128ff576128fe612a57565b5b828201905092915050565b6000612915826129a8565b9150612920836129a8565b92508282101561293357612932612a57565b5b828203905092915050565b600061294982612988565b9050919050565b60008115159050919050565b60007fffffffff0000000000000000000000000000000000000000000000000000000082169050919050565b600073ffffffffffffffffffffffffffffffffffffffff82169050919050565b6000819050919050565b82818337600083830152505050565b60005b838110156129df5780820151818401526020810190506129c4565b838111156129ee576000848401525b50505050565b60006002820490506001821680612a0c57607f821691505b60208210811415612a2057612a1f612ab5565b5b50919050565b612a2f82612b27565b810181811067ffffffffffffffff82111715612a4e57612a4d612ae4565b5b80604052505050565b7f4e487b7100000000000000000000000000000000000000000000000000000000600052601160045260246000fd5b7f4e487b7100000000000000000000000000000000000000000000000000000000600052601260045260246000fd5b7f4e487b7100000000000000000000000000000000000000000000000000000000600052602260045260246000fd5b7f4e487b7100000000000000000000000000000000000000000000000000000000600052604160045260246000fd5b600080fd5b600080fd5b600080fd5b600080fd5b6000601f19601f8301169050919050565b7f4552433732313a2063616c6c6572206973206e6f7420746f6b656e206f776e6560008201527f72206f7220617070726f76656400000000000000000000000000000000000000602082015250565b7f4552433732313a207472616e7366657220746f206e6f6e20455243373231526560008201527f63656976657220696d706c656d656e7465720000000000000000000000000000602082015250565b7f4f776e61626c653a206e6577206f776e657220697320746865207a65726f206160008201527f6464726573730000000000000000000000000000000000000000000000000000602082015250565b7f4552433732313a207472616e736665722066726f6d20696e636f72726563742060008201527f6f776e6572000000000000000000000000000000000000000000000000000000602082015250565b7f4552433732313a20746f6b656e20616c7265616479206d696e74656400000000600082015250565b7f4552433732313a207472616e7366657220746f20746865207a65726f2061646460008201527f7265737300000000000000000000000000000000000000000000000000000000602082015250565b7f4552433732313a20617070726f766520746f2063616c6c657200000000000000600082015250565b7f4552433732313a2061646472657373207a65726f206973206e6f74206120766160008201527f6c6964206f776e65720000000000000000000000000000000000000000000000602082015250565b7f45524337323155524953746f726167653a2055524920736574206f66206e6f6e60008201527f6578697374656e7420746f6b656e000000000000000000000000000000000000602082015250565b7f4552433732313a206d696e7420746f20746865207a65726f2061646472657373600082015250565b7f4f776e61626c653a2063616c6c6572206973206e6f7420746865206f776e6572600082015250565b7f4552433732313a20696e76616c696420746f6b656e2049440000000000000000600082015250565b7f4552433732313a20617070726f76616c20746f2063757272656e74206f776e6560008201527f7200000000000000000000000000000000000000000000000000000000000000602082015250565b7f4552433732313a20617070726f76652063616c6c6572206973206e6f7420746f60008201527f6b656e206f776e6572206f7220617070726f76656420666f7220616c6c000000602082015250565b612ed58161293e565b8114612ee057600080fd5b50565b612eec81612950565b8114612ef757600080fd5b50565b612f038161295c565b8114612f0e57600080fd5b50565b612f1a816129a8565b8114612f2557600080fd5b5056fea2646970667358221220f7c59889f3f6f73e9737587f75353032e6ec97ba3f0548f8c8a0f4d1d1e1ff8664736f6c63430008070033",
  "linkReferences": {},
  "deployedLinkReferences": {}
}